:020000020000FC
:040000000C942C0030
:10002C000C942400ABCD0303030303030303FF90E1
:10003C00FF84FF88FF90FF90FF30FF500F930FB7A6
:10004C000F9333950F910FBF0F9118950FEF0DBFB5
:10005C0008E00EBFE2E3F0E08490EAE3F0E0959074
:10006C00A4900CEF0AB9ABB80FE304B995B804EF40
:10007C000093890004E20093880000E00093800064
:10008C000CE00093810000916F00026000936F0000
:10009C007894831609F0FDCF30E04395473009F48E
:1000AC0040E0E2E3F0E060E0E40FF61F8490EAE366
:1000BC00F0E0042E000CE00DF61F9590A490ABB868
:0400CC0095B8E7CF2D
:00000001FF
